:02000000012FCE
:10000800FF00030E83018316D5000A08D4008A0175
:1000180070088312A3007108A2007208A100730877
:10002800A0000C1C7F28E30A0319E40A00306406C8
:10003800031D20280A306306031D7A282408F000CF
:100048002508F1002608F2002708F300F00A031932
:10005800F10A0319F20A0319F30A7008A4007108D7
:10006800A5007208A6007308A700E301E401EE1CCE
:1000780060282708003C031D4B282608003C031D68
:100088004B282508003C031D4B2824080A3C03186C
:100098004E28EE122708003C031D5C282608003C69
:1000A800031D5C282508003C031D5C282408143C1B
:1000B80003185F286E167A2800302702031D6E2861
:1000C80000302602031D6E2800302502031D6E280D
:1000D8003C302402031C7A2883160C10831210105B
:1000E8006E13A401A501A601A7016E106D308F0043
:1000F80084308E000C102308F0002208F10021083B
:10010800F2002008F300831654088A00550E830075
:06011800FF0E7F0E09003E
:08011E000000000000000800D1
:10012600163083120313FC006C30FD00FD0B99287A
:08013600FC0B992800000800F1
:10013E00313083120313FD00FD0BA32800000000D5
:02014E000800A7
:10015000831203179C1BAE288611AF2886151C1B23
:10016000B3280611B42806159C1AB8288610B92899
:1001700086141C1ABD280610BE28061403136E1917
:10018000C3280616C428061286168F208612031767
:100190009C19CC288611CD2886151C19D12806114A
:1001A000D22806159C18D6288610D72886141C1825
:1001B000DB280610DC28061403136E19E128061646
:1001C000E228061286168F2086126E1DE9289320DB
:0601D000EA289F20080050
:1001D60083120313F801F9011030FC00710DF80DBC
:1001E600F90D7408F8027508031C750FF902031857
:1001F60003297408F80775080318750FF907031023
:0A020600F00DF10DFC0BF1280800CB
:10021000831203136E1103171B089C00A8206E1590
:020220000800D4
:100222008316031398181729000011298312031744
:080232001B08031399000800EA
:10023A00831203179801160884000008970017080C
:10024A00003A0319332917089B0011210317980A4A
:0E025A001808160784000008970024290800E1
:10026800462980308312031796005929C03096001A
:100278005929943096005929D4309600592980304C
:1002880096005929831203171608013A03193529CC
:100298001608023A03193A291608033A03193D29A0
:1002A8001608043A0319402943291703F0001608D1
:1002B800F0077008960003136E15700803179C006A
:1002C800A8206E11031718089C00A8206E150800B6
:1002D800831203171608F2007208F000F20A700879
:1002E8008400000803197929702916087202F000A1
:0C02F8000130F002F101031CF1030800CA
:10030400831203179901053019020318902919085B
:100314001807840020308000990A852919081807D5
:10032400840080019903190818079A000A30F40020
:10033400F5011608F0001708F100EB207808F0002A
:100344007908F1003030F00703171A0884007008A8
:1003540080000A30F400F5011608F0001708F100D7
:10036400EB2070080317960071089700003071069F
:10037400031DBE2900307006031DC129C32999033A
:0403840095290800AF
:10038800D6298030831203179600E929C0309600D9
:10039800E92994309600E929D4309600E92980307B
:1003A8009600E929831203171608013A0319C5298B
:1003B8001608023A0319CA291608033A0319CD295F
:1003C8001608043A0319D029D3291703F000160890
:1003D800F0077008960070089C00A8206E1103179B
:1003E800990119081807840000080319042A190834
:1003F8001807840000089B0008210317990AF529AB
:0604080003136E1508004D
:10040E00153083120313FD00FD0B0B2A00000000B4
:02041E000800D4
:1004200083120313FB01FA01F9018030F800F10C8B
:10043000F00C031C242A7408F90775080318750FBB
:10044000FA070318FB0A0310F01F2C2A7408FA0796
:1004500075080318750FFB07FB0CFA0CF90CF80C68
:10046000031C172A7B08F3007A08F2007908F100D0
:060470007808F00008000E
:1004760083160313861206120610861006118611BD
:100486008312861206128611061186100610932014
:10049600932093208614061486168F2086129320A6
:1004A60086168F208612932086168F20861293201A
:1004B600061086168F208612932086168F208612A7
:1004C6008610861586168F208612932086110614AE
:1004D60086168F208612061086168F208612932087
:1004E60086168F208612061486168F208612932073
:1004F600061086168F208612861506158614061493
:0C05060086168F20861293206E150800C8
:10051200FF3083160313D100FF30D200FF30D30027
:10052200FF3083129F01C0309F045909F000700808
:0E05320083169F051F179F1783121F140800C2
:10054000273083120313FD00FD0BA42A00000000D6
:100550008818BB2A4F30FD00FD0BAC2A00000000BC
:10056000881CBB2A2730FD00FD0BB42A00000000C8
:0A0570000130F000BC2AF001080081
:10057A00831203139F01C0309F045909F0007008C9
:10058A0083169F051F179F176D08F000F00D701056
:10059A00F00D7010F00D7010700883129F041F1474
:1005AA0007221F151F1DDB2A0000D72A1F101E084D
:1005BA00F100F00183161E08F0040030F10408006F
:1005CA0083160313EE01EF016D08F2006D08F300C4
:1005DA00720884000008203A031DF82A6E086F0486
:1005EA00031DF82A052B0130EE000030EF007208D7
:1005FA0084000008F0007308840070088000F30A81
:10060A007208F100F20A710884000008003A031D1A
:08061A00ED2A6D08F000080054
:10062200831603138810831288104E30FC00EB30BF
:10063200FD00FD0B1A2BFC0B1A2B88143130FD0028
:0E064200FD0B212B0000000083168814080019
:1006500031308312031390006D308F0084308E0090
:0C0660000C1083160C140B178B170800ED
:10066C00D6308312031796001D21303096001D21C1
:10067C00E43096001D212C3096001D21DD309600B3
:10068C001D212E3096001D21C03096001D215530A5
:10069C0096001D21B53096001D21573096001D2166
:1006AC00AA3096001D21533096001D21CF309600A4
:0A06BC001D21503096001D2108009A
:1006C600013083120317960001309700A03098007E
:1006D600C42101300317960005309700D6309800E4
:1006E600C421D630031796006C217008053E97008A
:1006F60001309600DF3098003421D630031796007B
:100706006C217008063E970001309600653098000F
:10071600C421D630031796006C2170080C3E970052
:1007260001309600E4309800C421D63003179600B5
:100736006C2170080C3E83160313ED00E43083121F
:10074600031796006C217008831603136D07831236
:1007560003179700013096006C309800C4210230D0
:100766000317960001309700A5309800C421023087
:100776000317960005309700DD309800C421DD3060
:10078600031796006C217008053E9700023096000C
:0807960036309800C421080070
:10079E0083160313ED01F2010830720203180D2CBB
:1007AE0083128818DB2BD72B1D30FD00FD0BDD2BA4
:1007BE00000000008818F62B7208073CF000700845
:1007CE00F1000130F00071080319F12BF00D7010DB
:1007DE00FF3EEB2BF00970088316ED05072C72080F
:1007EE00073CF0007008F1000130F00071080319A9
:1007FE00042CF00D7010FF3EFE2B83167008ED04D6
:10080E008312881C0B2C072CF20AD32B83166D082F
:04081E00F0000800DE
:100822008312031792019301831603136D08831237
:1008320003179400831603136E088312031795009F
:100842008030831603136E06F00080307002031DA1
:100852002C2C00306D020318442C01308312031734
:10086200920000309300831603136D08003C83123C
:1008720003179400831603136E08031C013E8312B0
:1008820003179501950283120317140896001508A1
:100892009700831603136F088312031798008221AF
:1008A20006309000003091001108003C031D5B2CC3
:1008B2001008003C03187E2C1008831603136F07E0
:1008C200F2000130831203171002F0000030031C03
:1008D200013E1102F1007008831603136F078400B2
:1008E2000008F00072088400700880000130831252
:1008F20003179002031C9103552C831603136F08F0
:100902008400203080008312031712081304031995
:10091200A82C900191011008831603136F0784001D
:100922000008203A031D9B2C83120317900A031917
:10093200910A8C2C8312031701309002031C91033D
:100942001008831603136F0784002D3080000800FF
:100952008316031398169030831298008316871714
:10096200071383128C1EB82C1A08F000B22C080050
:0E097200831603136C088A006B0882000800CD
:100980004D3083160313B5004130B6004E30B7002A
:100990005530B800B9018312EE1CE52C3208A807C7
:1009A00033080318330FA90734080318340FAA07B4
:1009B00035080318350FAB0783160C10831210107F
:1009C000A401A501A601A7016E106E10EE10081576
:1009D000023003179600093097005A309800C4215E
:0209E00008000D
:1009E200413083160313B5005530B6005430B700BA
:1009F2004F30B800B9013408003C031D022D330802
:100A02001E3C031C162D00303D02031D0A2D14301E
:100A12003C02031C162D00303F02031D122D233011
:100A22003E02031C162DF001182D0130F000701843
:100A32001D2D8312EE111F2D8312EE156E1B232D19
:100A42006E12EE166E186E2DEE1C352DEE1E352D25
:100A52004F308316AF004E30B0002030B100B201EB
:100A620083120811EE146D2DEE1D4E2D6E1A4E2DB1
:100A7200EE146E1B432D282383126E17A401A501C9
:100A8200A601A7014F308316AF004E30B0002030D0
:100A9200B100B201831208116D2DEE1C642D3208D3
:100AA200A80733080318330FA90734080318340FB3
:100AB200AA0735080318350FAB07EE10A401A501EC
:100AC200A601A7016E1408154F308316AF004630F9
:100AD200B0004630B100B201792D8312EE10081534
:100AE2004F308316AF004630B0004630B100B2013D
:100AF200023083120317960009309700AA3098003B
:040B0200C421080002
:100B0600023083120313FB008630FC009930FD008F
:100B1600FD0B8B2DFC0B8B2DFB0B8B2D00306E18DC
:100B260001308316ED00EE01CF30EF001124CF30F7
:100B360083160313ED00E5228312EE1CAB2D240869
:100B4600B2002508B3002608B4002708B500AF2D6B
:100B5600B201B301B401B50132082807F000290833
:100B66000318013E3307F1007008B9007108BA0096
:100B760070088316ED007108EE00C030EF001124F6
:100B8600C03083160313ED00E522BE01BF01CB0181
:100B9600CC0100304C02031DD22D04304B02031849
:100BA6000D2EED01BD227008E83CF0007108031C13
:100BB600013E033CF1006430F4000030F5001022E1
:100BC6002030F4000330F500EB2070088316CD00CA
:100BD6007108CE0000307102031DF32D0030700243
:100BE6000318F72DCD01CE014E08003C031DFD2D47
:100BF6004D08643C0318032E6430CD000030CE004F
:100C06004D08BE074E080318013EBF07CB0A03195D
:100C1600CC0ACC2D4B08F4004C08F5003E08F00039
:100C26003F08F100EB2070088316ED007108EE0016
:100C3600DD30EF001124DD3083160313ED00E522CD
:100C46001123A022700803197B2ECF237008CA0037
:100C5600CF237008C800CF237008C900CF237008BF
:100C66008312EF00CF237008C7008312EE1383169A
:100C760048084A07F100F2010318F20A4908F10789
:100C86000318F20A83126F08F1070318F20AFF30FD
:100C96007105F3007208F4000030F40500307406A4
:100CA600031D572E73087006031D7B2EEE17831641
:100CB6004908B300B4014A08BC00BD013308ED0081
:100CC6003408EE00D630EF001124831603133C08D7
:100CD600ED003D08EE00E430EF001124D630831617
:100CE6000313ED00E522E430ED00E522632336230D
:020CF6000800F4
:100CF80001308316031385008601013088008312B2
:100D080086010815EE11EE106E136E12EE166E10B7
:100D180050308316AA005530AB004D30AC0050302F
:100D2800AD003A30AE004F30AF004630B00046302C
:100D3800B100B2014130B5005530B6005430B700AB
:100D48004F30B800B9013B220430FB000C30FC00E6
:100D58003330FD00FD0BAE2EFC0BAE2EFB0BAE2E82
:100D680000000000013003179C00A8200C30031776
:100D78009C00A820013003179600013097003B30F3
:100D88009800C421023003179600073097004A30B4
:100D98009800C4214D30831699001815A9240430F1
:100DA800FB000C30FC003330FD00FD0BD92EFC0B92
:100DB800D92EFB0BD92E0000000089220830FB0039
:100DC8009D30FC000530FD00FD0BE82EFC0BE82EE5
:100DD800FB0BE82E00000000013003179C00A82040
:020DE800080001
:100DEA00B9248A110A128000840AEB0A0319EC0A50
:080DFA00F003031DF52E0800B3
:100E020076277C26832583120313EE1F0D2F081CE1
:100E12000C2FC0240D2FF1241030FB003930FC00C0
:100E22000D30FD00FD0B132FFC0B132FFB0B132FAB
:080E320000000000032F1C2F3B
:100EEC0024308400483083120313F0002230831620
:100EFC00EB000730EC00F526A03084000A3083129A
:100F0C00F0006A308316EB000730EC00F5266C30ED
:100F1C00840002308312F00074308316EB0007302B
:060F2C00EC00F5260800B0
:080E44000034003400340034D6
:080E4C000034003400340034CE
:040E54002C34003406
:040E58002C34003402
:040E5C002C340034FE
:080E60000034003400340034BA
:060E6800253420340034A3
:040E6E000034003418
:100E7200533479347334743465346D3420347434B7
:0E0E8200753472346E3469346E346734003463
:0C0E90006F346E342E342E342E340034B7
:060E9C000D340A3400349D
:040EA2002C340034B8
:040EA6002C340034B4
:040EAA002C340034B0
:020EAE000F34FF
:100EB0004D346F34643465343A344D3441344E34F7
:020EC0000034FC
:040EC20000340034C4
:0E0EC60043342034483420343D34203400348A
:0A0ED400543420343D34203400343F
:0A0EDE004D3420343D34203400343C
:040EE8002534003479
:02400E004A2F37
:00000001FF
