:100000000C9436000C945E000C945E000C945E0020
:100010000C945E000C945E000C945E000C945E00E8
:100020000C945E000C945E000C945E000C945E00D8
:100030000C945E000C945E000C945E000C945E00C8
:100040000C942D020C945E000C949D020C9477028B
:100050000C945E000C945E000C945E000C945E00A8
:100060000C945E000C945E00CF02040511241FBEA8
:10007000CFEFD8E0DEBFCDBF21E0ACE1B1E001C001
:100080001D92AE3CB207E1F711E0A0E0B1E0EAEA70
:10009000FEE002C005900D92AC31B107D9F710E037
:1000A000C5E3D0E004C02197FE010E945005C4338F
:1000B000D107C9F70E9445030C9448070C9400002F
:1000C0003FB7F89480911F0190912001A0912101E8
:1000D000B091220126B5A89B05C02F3F19F00196CB
:1000E000A11DB11D3FBFBA2FA92F982F8827BC0192
:1000F000CD01620F711D811D911D42E0660F771FBA
:10010000881F991F4A95D1F708958F929F92AF92B9
:10011000BF92CF92DF92EF92FF924B015C010E945F
:1001200060006B017C010E9460006C197D098E09E2
:100130009F09683E734081059105A8F321E0821A6A
:100140009108A108B10888EEC80E83E0D81EE11C12
:10015000F11C81149104A104B10429F7FF90EF90E0
:10016000DF90CF90BF90AF909F908F9008950895AB
:10017000AF92BF92CF92DF92EF92FF920F931F93B5
:10018000CF93DF936C017B018B01040F151FEB01F3
:100190005E01AE18BF08C017D10759F06991D601AA
:1001A000ED91FC910190F081E02DC6010995892B1C
:1001B00079F7C501DF91CF911F910F91FF90EF90DB
:1001C000DF90CF90BF90AF900895FC01538D448D88
:1001D000252F30E0842F90E0821B930B541710F0F2
:1001E000CF96089501970895FC01918D828D9817FF
:1001F00061F0A28DAE0FBF2FB11D5D968C91928DD7
:100200009F5F9F73928F90E008958FEF9FEF089507
:100210002FB7F8948091230190912401A09125019A
:10022000B09126012FBF80932F0190933001A093AE
:100230003101B093320187E291E00E94F40097FF10
:1002400026C02FB7F8948091230190912401A091AA
:100250002501B09126012FBF40912F01509130010F
:100260006091310170913201841B950BA60BB70B85
:1002700040912B0150912C0160912D0170912E0124
:1002800084179507A607B707B0F28FEF9FEF089581
:10029000FC01918D828D981731F0828DE80FF11D50
:1002A000858D90E008958FEF9FEF0895FC01918D6B
:1002B000228D892F90E0805C9F4F821B91098F7364
:1002C0009927089587E291E00E94560121E0892B49
:1002D00009F420E0822F089580E090E0892B29F036
:1002E0000E94620181110C9400000895FC01A48D0C
:1002F000A80FB92FB11DA35ABF4F2C91848D90E048
:1003000001968F739927848FA689B7892C93A0892A
:10031000B1898C91837080648C93938D848D9813B4
:1003200006C00288F389E02D80818F7D8083089547
:10033000EF92FF920F931F93CF93DF93EC0181E035
:10034000888F9B8D8C8D98131AC0E889F9898081DC
:1003500085FF15C09FB7F894EE89FF896083E8890F
:10036000F98980818370806480839FBF81E090E001
:10037000DF91CF911F910F91FF90EF900895F62E8E
:100380000B8D10E00F5F1F4F0F731127E02E8C8D28
:100390008E110CC00FB607FCFACFE889F98980816D
:1003A00085FFF5CFCE010E947601F1CFEB8DEC0FEA
:1003B000FD2FF11DE35AFF4FF0829FB7F8940B8F8A
:1003C000EA89FB8980818062CFCFCF93DF93EC01F4
:1003D000888D8823B9F0AA89BB89E889F9898C912D
:1003E00085FD03C0808186FD0DC00FB607FCF7CFE9
:1003F0008C9185FFF2CF808185FFEDCFCE010E94E9
:100400007601E9CFDF91CF9108950F931F93CF939A
:10041000DF93EC0188819981009759F02A813B8113
:100420002617370730F081E0DF91CF911F910F91B0
:1004300008958B016F5F7F4F0E947B06009759F0F4
:10044000998388831B830A832C813D81232B59F751
:10045000FC011082E8CF80E0E7CF1F920F920FB629
:100460000F9211242F933F938F939F93AF93BF933A
:100470008091230190912401A0912501B091260142
:1004800030911E0123E0230F2D3758F50196A11D51
:10049000B11D20931E018093230190932401A0930A
:1004A0002501B093260180911F0190912001A09118
:1004B0002101B09122010196A11DB11D80931F0160
:1004C00090932001A0932101B0932201BF91AF919D
:1004D0009F918F913F912F910F900FBE0F901F9082
:1004E000189526E8230F0296A11DB11DD2CF1F92A9
:1004F0000F920FB60F9211242F933F934F935F9358
:100500006F937F938F939F93AF93BF93EF93FF93DB
:1005100087E291E00E947601FF91EF91BF91AF9148
:100520009F918F917F916F915F914F913F912F910B
:100530000F900FBE0F901F9018951F920F920FB63D
:100540000F9211242F938F939F93EF93FF93E0913A
:100550003701F09138018081E0913D01F0913E0139
:1005600082FD1BC09081809140018F5F8F7320912D
:100570004101821741F0E0914001F0E0E95DFE4F5A
:10058000958F80934001FF91EF919F918F912F91D3
:100590000F900FBE0F901F9018958081F4CF10928E
:1005A0002A011092290188EE93E0A0E0B0E0809348
:1005B0002B0190932C01A0932D01B0932E018AE082
:1005C00091E0909328018093270185EC90E090932F
:1005D00034018093330184EC90E090933601809352
:1005E000350180EC90E0909338018093370181ECE5
:1005F00090E090933A018093390182EC90E09093DF
:100600003C0180933B0186EC90E090933E01809307
:100610003D0110924001109241011092420110924E
:1006200043011092C5011092C4011092C7011092AB
:10063000C6011092C9011092C80170E060E084EC1C
:1006400091E00E9405022091C4013091C501811101
:1006500013C02115310519F0C9010E94F20510924D
:10066000C5011092C4011092C9011092C8011092E4
:10067000C7011092C60108951092C9011092C801D5
:100680006AE171E0C9010C944107CF93DF93CDB7C4
:10069000DEB728970FB6F894DEBF0FBECDBF7894B3
:1006A00084B5826084BD84B5816084BD85B5826077
:1006B00085BD85B5816085BD80916E008160809328
:1006C0006E00109281008091810082608093810091
:1006D00080918100816080938100809180008160A1
:1006E000809380008091B10084608093B1008091FC
:1006F000B00081608093B00080917A008460809324
:100700007A0080917A00826080937A0080917A00EA
:10071000816080937A0080917A00806880937A006B
:100720001092C100E0913701F091380182E080839E
:10073000E0913301F09134011082E0913501F091A4
:1007400036018FEC808310923F01E0913B01F091E4
:100750003C0186E08083E0913901F0913A0180818B
:1007600080618083E0913901F0913A018081886055
:100770008083E0913901F0913A0180818068808323
:10078000E0913901F0913A0180818F7D808364EF9F
:1007900071E080E090E00E94850088E191E0A82E61
:1007A000880FBB0880E0682E80E0782E87E291E019
:1007B0000E945601892B39F464E670E080E090E0F5
:1007C0000E948500F3CF10921D0110921C011A8225
:1007D00019821C821B821E821D8270E060E0CE01A5
:1007E00001960E94050229813A8181112EC02115AE
:1007F000310519F0C9010E94F2051A8219821E8280
:100800001D821C821B820E94080197FD26C08A154A
:100810009B0519F18F8318860D811E810F5F1F4F75
:10082000B801CE0101960E940502882361F3298157
:100830003A818D819E81BE01695F7F4F820F931F38
:100840000E9441071E830D83DECF1E821D826AE156
:1008500071E0C9010E944107D6CF8091C4019091F7
:10086000C501009709F45CC069817A816115710541
:1008700009F454C04091C6015091C7012D813E81B9
:100880004217530708F44AC00E9441078D819E8198
:100890009093C9018093C8011E821D8289819A812B
:1008A000009711F00E94F205C090C401D090C501DC
:1008B000C114D10409F487C00091C8011091C90185
:1008C00076010115110509F043C080911C0190913A
:1008D0001D01069789F46091C4017091C501A801BA
:1008E00087E291E00E94B80042E050E068E171E0E8
:1008F00087E291E00E94B80064E670E080E090E05A
:100900000E9485006114710409F450CF0E946201B5
:10091000882309F44BCF0E94000048CF0E94F205C3
:1009200089819A819093C5018093C4018B819C81B8
:100930009093C7018093C6018D819E819093C901D8
:100940008093C8011A8219821C821B82A5CF740170
:1009500047018FEF881A980AF7018081082E000C52
:10096000990B0E940D05892B91F7015011090C0D6F
:100970001D1DF8018081082E000C990B0E940D05A9
:10098000892B31F00E151F0518F001501109F1CF18
:100990000F5F1F4FA8014E195F095093C901409383
:1009A000C801CE14DF0420F4B701C6010E94380745
:1009B000E091C401F091C5018091C8019091C901F5
:1009C000E80FF91F10820091C8011091C901209110
:1009D000C4013091C50180911C0190911D01F90164
:1009E000A801420F531F4E175F0749F0211531052B
:1009F00021F060816C3209F401963196F4CF909326
:100A00001D0180931C0161CF8091C4019091C501AB
:100A1000009711F00C94F205089591110C941605AD
:100A2000803219F089508550C8F708959927882792
:100A300008952F923F924F925F926F927F928F9282
:100A40009F92AF92BF92CF92DF92EF92FF920F935D
:100A50001F93CF93DF93CDB7DEB7CA1BDB0B0FB667
:100A6000F894DEBF0FBECDBF09942A883988488824
:100A70005F846E847D848C849B84AA84B984C884BA
:100A8000DF80EE80FD800C811B81AA81B981CE0FB1
:100A9000D11D0FB6F894DEBF0FBECDBFED01089596
:100AA000EE0FFF1F0590F491E02D09940F931F9313
:100AB000CF93DF938230910510F482E090E0E091D3
:100AC000CC01F091CD0130E020E0B0E0A0E0309723
:100AD00099F42115310509F44AC0281B390B24303B
:100AE0003105D8F58A819B816115710589F1FB017A
:100AF00093838283FE0111C0408151810281138161
:100B000048175907E0F04817590799F4109761F012
:100B100012960C93129713961C933296CF01DF9185
:100B2000CF911F910F9108950093CC011093CD01A7
:100B3000F4CF2115310551F04217530738F0A901C0
:100B4000DB019A01BD01DF01F801C1CFEF01F9CF4F
:100B50009093CD018093CC01CDCFFE01E20FF31F26
:100B6000819391932250310939832883D7CF2091E3
:100B7000CA013091CB01232B41F420910201309125
:100B800003013093CB012093CA01209100013091E1
:100B900001012115310541F42DB73EB74091040103
:100BA00050910501241B350BE091CA01F091CB0156
:100BB000E217F307A0F42E1B3F0B2817390778F034
:100BC000AC014E5F5F4F2417350748F04E0F5F1F93
:100BD0005093CB014093CA01819391939FCFF0E052
:100BE000E0E09CCFCF93DF930097E9F0FC013297D0
:100BF00013821282A091CC01B091CD01ED0130E0C1
:100C000020E01097A1F420813181820F931F209161
:100C1000CA013091CB012817390709F061C0F09360
:100C2000CB01E093CA01DF91CF910895EA01CE177D
:100C3000DF07E8F54A815B819E0141155105B1F757
:100C4000E901FB83EA8349915991C40FD51FEC1741
:100C5000FD0761F4808191810296840F951FE9015F
:100C600099838883828193819B838A83F0E0E0E08B
:100C700012968D919C9113970097B9F52D913C9107
:100C80001197CD010296820F931F2091CA013091D6
:100C9000CB012817390739F6309751F51092CD015D
:100CA0001092CC01B093CB01A093CA01BCCFD383E7
:100CB000C28340815181840F951FC817D90761F401
:100CC0004E5F5F4F88819981480F591F5183408340
:100CD0008A819B81938382832115310509F0B0CFEE
:100CE000F093CD01E093CC019ECFFD01DC01C0CF9C
:100CF00013821282D7CFB0E0A0E0E1E8F6E00C94D6
:100D00001B058C01009751F4CB010E9456058C0104
:100D1000C801CDB7DEB7E0E10C943705FC01E60F62
:100D2000F71F9C0122503109E217F30708F49DC018
:100D3000D901CD91DC911197C617D70798F0C5302E
:100D4000D10530F3CE0104978617970708F3C61B29
:100D5000D70B2297C193D1936D937C93CF010E94BF
:100D6000F205D6CF5B01AC1ABD0A4C018C0E9D1E5C
:100D7000A091CC01B091CD01512C412CF12CE12C52
:100D8000109731F58091CA019091CB018815990592
:100D900009F05CC04616570608F058C08091000163
:100DA00090910101009741F48DB79EB740910401E5
:100DB00050910501841B950BE817F90708F055C001
:100DC000F093CB01E093CA01F90171836083A0CF56
:100DD0008D919C91119712966C90129713967C901E
:100DE0001397A815B90559F56C0142E0C40ED11C42
:100DF000CA14DB0420F1AC014A195B09DA0112962E
:100E0000159780F06282738251834083D9016D937C
:100E10007C93E114F10471F0D7011396FC93EE93E7
:100E2000129776CF22968C0F9D1FF90191838083B4
:100E3000F301EFCFF093CD01E093CC0169CF4816D9
:100E4000590608F42C017D01D3019ACFCB010E94F1
:100E500056057C01009749F0AE01B8010E943807A1
:100E6000C8010E94F205870153CF10E000E050CF87
:100E7000FB01DC0102C001900D9241505040D8F7B7
:100E80000895FB01DC0101900D920020E1F7089527
:100E900010E0C5E3D0E004C0FE010E945005219699
:0A0EA000C633D107C9F7F894FFCF5D
:100EAA000000CE018000000000009801B800E500B3
:0C0EBA00E5015601F40048010D0A00009B
:00000001FF
